:020000040000FA
:10000000F00B20206D010000710100007301000061
:1000100000000000000000000000000000000000E0
:10002000000000000000000000000000750100005A
:1000300000000000000000007701000079010000CE
:100040007B010000A12400007B0100007B01000077
:100050007B0100007B0100007B0100007B010000B0
:10006000000000007B0100007B0100000000000098
:10007000000000007B0100007B0100007B0100000C
:100080007B0100007B0100007B010000613D00005E
:100090007B0100007B010000000000000000000068
:1000A0007B0100007B010000000000000000000058
:1000B0007B010000000000007B0100007B010000CC
:1000C00000F002F800F042F80CA030C808382418FC
:1000D0002D18671EA246AB4654465D46AC4201D180
:1000E00000F034F87E460F3EB6460FCC0126334270
:1000F00000D0FB1A3343A246AB4618470461000008
:100100002461000000000000103A02D378C878C1D2
:10011000FAD8520701D330C830C101D504680C6049
:100120007047000000000000002300240025002686
:10013000103A01D378C1FBD8520700D330C100D5A3
:100140000B6070471FB51FBD10B510BD00F09EFFBE
:100150001146FFF7F7FF05F031F800F0B6FF03B4E2
:10016000FFF7F2FF03BC03F051FE00000648004712
:10017000FEE7FEE7FEE7FEE7FEE7FEE70348044989
:10018000024A044B70470000C1000000F006202026
:10019000F00B2020F0062020704700000022030909
:1001A0008B422CD3030A8B4211D300239C464EE092
:1001B00003460B433CD4002243088B4231D303094E
:1001C0008B421CD3030A8B4201D394463FE0C30900
:1001D0008B4201D3CB01C01A524183098B4201D318
:1001E0008B01C01A524143098B4201D34B01C01A03
:1001F000524103098B4201D30B01C01A5241C3087B
:100200008B4201D3CB00C01A524183088B4201D3E9
:100210008B00C01A524143088B4201D34B00C01AD5
:100220005241411A00D201465241104670475DE0EA
:10023000CA0F00D04942031000D3404253409C46AD
:10024000002203098B422DD3030A8B4212D389016A
:10025000FC2212BA030A8B420CD3890192118B4201
:1002600008D3890192118B4204D389013AD09211AB
:1002700000E08909C3098B4201D3CB01C01A524166
:1002800083098B4201D38B01C01A524143098B422F
:1002900001D34B01C01A524103098B4201D30B0118
:1002A000C01A5241C3088B4201D3CB00C01A52413D
:1002B00083088B4201D38B00C01A5241D9D2430824
:1002C0008B4201D34B00C01A5241411A00D2014661
:1002D0005241104663465B1001D34042002B00D5CB
:1002E0004942704763465B1000D3404201B505495F
:1002F000002802DC491C084000E00846C046C04611
:1003000002BD00BFFFFFFF7F7047704770470000CE
:100310000246C80FC00781434B0030B54B405B001D
:100320009B0D20D01923DB06C91801231B05994218
:1003300020DB0324A40704251346AB400BD3002B7A
:1003400004D1EB0613409B00E34204D4012464076C
:10035000002312195941FF231B0599420BD2C900F2
:100360000143500F09E0CB0204D5014308030243C7
:1003700005D0054830BDFF21C905084330BD0846FA
:1003800007210905884330BD0000C07FF0B50C4649
:10039000871A9C410D46861A9D4103D2C01BA1417C
:1003A000D21963410D0D1F0DC94EEC1BAE435CD03D
:1003B0007F057F0D0026002F51D02D05AC46A943A7
:1003C000DD020123ED0A1B051D4320231B1B24D442
:1003D0001746E740381871412F46E740CC199D4039
:1003E0002818314661410C0D27D161449A4013D53C
:1003F0000023401C594152000ED140084000012208
:100400004B005205D34207D305204007C14201D516
:10041000B04900E0B0493046F0BD6B00002A00D082
:1004200001229A181F23203C1B1B01D5002302E048
:10043000E540281871410C0DD7D001242405091975
:10044000C407CD0740084908E40F28436144002C45
:10045000D5D00024401C61419A40D0D1CDE76A0537
:10046000520DD9D1C90FC907D5E79C4D4E000028C0
:1004700001D0012400E0002434195F00002A01D0DB
:10048000012600E00026BE19954FAC420CD8AE42C2
:100490000AD8B44206D001256D05EC42BCD0104606
:1004A0001946F0BD9942FCD000203946F0BDF0B5A8
:1004B0001FB40C460F46811A9F412546861A9D415E
:1004C00006D20125ED076F40401ABC4152187B410E
:1004D000210D1E0D8D1BAC467D4D8D437ED07505C7
:1004E0006D0D7CD00D05AE46AC431B031B0B794D47
:1004F00052429D41202366469B1B14D31746F7406A
:10050000381800260090744160462F460741E419D0
:1005100000989D402818664116D4714671189A407B
:1005200025D5012320E093182A466A415200002B6A
:1005300000D0521C1E23203E9B1B002B61DD354149
:10054000EE1728186641E8D5001876415B1C9A40E2
:1005500000D3401C4B05F3181524E34010D3002BA7
:1005600052D071467118D30FC01802D3491C05B080
:10057000F0BD0123DB079A42F9D140084000F6E7BD
:1005800001225205B21801D1002853D00123CC0A10
:10059000DB029943891E002A08D1020C03D0020C09
:1005A0000004103902E00246002020390023550BD8
:1005B00005D112020823550B01D152010D23550C10
:1005C00001D112011B1DD50C01D192009B1C150DF0
:1005D00001D152005B1C2025EE1A01E02CE022E044
:1005E0000546F54015439840CA1AE10769181305F6
:1005F000C918002ABBDA032040070818C10FC90731
:100600000FE071466118B2E7F10740080843711026
:1006100071444A000CD001235B059A42A7D2C90F4E
:10062000C9070020A3E74905490D26D1002001E0B4
:100630000028F4D100219AE7284D6600002801D057
:10064000012100E0002171185F00002A01D001267D
:1006500000E00026BE19224FA94210D8AE420ED8A3
:10066000B14208D001256D05E94206D01946A8021D
:10067000414010467BE79C4201D0214677E70020AD
:10068000394674E710B50C465C4005D50124E407F3
:100690006340FFF70CFF10BDFFF778FE10BD30B4CC
:1006A0000C465C4004D50124E407634030BC6DE691
:1006B00030BCFCE670B50124E40761400D465D40A6
:1006C00002D4FFF763FE70BD6340FFF7F0FE70BD1C
:1006D000FF0700000000F0FF0000F07F0000E0FFD7
:1006E0000000F87FF0B5F94D0C091E092C402E4092
:1006F0002F468BB0A7437DD0B543FCD0002E7AD0D7
:10070000002CFCD00D465D40ED0F2543AC1BFF25B2
:10071000AD0464190894C502440DC9022143500D6B
:10072000DC0204430120C00701430443D2020191CB
:10073000200C110C00958C46010423468B430A9132
:1007400061460904E24D8A430991010A7D44491931
:100750008039097805464D4301266D18F605751B4D
:100760006943C90C640B891C4C436418B5012C1BEC
:10077000250C2E04B4434C434D43210C69188909C0
:100780000591009DE90701D00121C90704912C467C
:1007900001996708CD072F434C08059DE10B4D4398
:1007A0002D0C29466646754302950D4645432E4657
:1007B000029D7D1BB44100950D465D4301942C0CB8
:1007C0002F040D465543AE462D0C3D430295039430
:1007D0007546049C2D04641B049406D2029C039D60
:1007E000641C002675410395029401AC70CC009FF7
:1007F0007D1B01E03EE162E1B441090400950791EF
:1008000001940599A4086143090C0C464443650B07
:10081000E7040C4666467443A646640B3C430395C6
:1008200002947446049DE4042C1B049406D2029C9A
:10083000039D641C002675410395029401AC70CCA5
:10084000009F7D1BB44101940C465C430095650FED
:10085000E7000C465443A646640F3C4303950294BC
:100860007446049DE4002C1B049406D2029C039D54
:10087000641C002675410395029401AC70CC009F66
:100880007D1BB441AE09AF06049DC900AD092F43DD
:10089000049DA406AD060495079D3443691807918D
:1008A000059DE10B4D432D0C294666467543029587
:1008B0000D4645432E46029D7D1BB44100950D46D5
:1008C0005D4301942C0C2F040D465543AE462D0C70
:1008D0003D43029503947546049C2D04641B0494C7
:1008E00006D2029C039D641C002675410395029468
:1008F00001AC70CC009F7D1BB44101948C05069423
:10090000079C890A611800950791019C0599A40824
:100910006143090C0D464543680BEF040D466446E0
:1009200065436C0B3C43049FED047D1BAC4602D237
:100930000025641C6841009E019D371B85410846C7
:10094000584301950C46460FC5005443600F284399
:100950006546E4002C1B02D20025401C6E41019D1F
:100960003F1AB5412846BD09800628438446A009A0
:10097000BF064E020699A40676180743079D00207D
:1009800068410A99079019430020099B009060462E
:10099000FF1913434041E20F64003A43A446044662
:1009A000D71A8C41A04203D90120009020463A4634
:1009B000C70F941840416246D20F22436446640038
:1009C0000494009CBE466400D71AA44604460297CD
:1009D0008C417746002F01D1A04204D96046401CCB
:1009E0008446029A2046C40FA64694184041049AB1
:1009F0000546D20F224364466400D31A8D417146E6
:100A0000002901D1A84202D928461A46641C104385
:100A10000122002800D0164361020020079B89199B
:100A200004465C410223002C02DB49181346644152
:100A3000089DCE0A2D145D194B056705E10A2C05AA
:100A40000D1908993E43C9076940002B08D093400F
:100A500006D30022761C5141002B01D17608760086
:100A60001C4A002D43DB154241D0AA433FD03046FB
:100A70000BB0F0BD06180D464D41174C7642AC4107
:100A80001AD395181C465C41134A6D42A24113D3F8
:100A9000012252054C00D4420AD15C00D4420BD052
:100AA0004B4002D592021143E2E749004908DFE7D3
:100AB0005940C90FC90718E000200849D8E7054880
:100AC00001420DD10342F7D0F2E700000000FF071A
:100AD000685100000000F07F0000E0FF0000F87F98
:100AE000114859400143C01241400020C0E7012392
:100AF000089A9B069A4205DC032252078918C90FFF
:100B0000C907B5E7052252078918074A1143D212CF
:100B10005140ADE770B515461C4602460B462846C7
:100B20002146FFF7DFFD70BDFFFFFF7F30B50346B5
:100B3000CA02400D1043164D164C0A1502D0204330
:100B4000002A06DBAA1A002A12DDD040FF2A0BDC9D
:100B500030BD5205520D01D140004008AA1A07D4F9
:100B6000D0404042FF2A01DD002030BD0028FCDDDE
:100B70004A00002B01D0012000E0002010180122C3
:100B80005205D042F0D8C817C043604030BD0000C5
:100B90001E040000000000800346CA02400D10B58C
:100BA00010430A1504D00124E4072043002A05DB82
:100BB0000A4CA21A04D4D040FF2A00DD002010BD48
:100BC0004A00002B01D0012000E000201018012273
:100BD0005205D042F2D8C817C04310BD1E04000011
:100BE0001F22030C02D10F22000402D0030E03D0F7
:100BF00004E00020014670470002083A030F01D1CB
:100C00000001121F830F01D18000921E002801DB1A
:100C10004000521E120551184205C01241181046DC
:100C20007047C10FC90700D040420122920711430B
:100C3000D6E701218907D3E7F0B58B4C0F0925468C
:100C400089B0BD437BD01D092646AE43FAD00E467F
:100C50005E402740F60F3E43254071D024012142DB
:100C6000FBD0FF24AD19A4042D1B039501252D05F0
:100C7000DB02DB0AC9022B43C90A29431E01090111
:100C8000040F130F050121431701880B82039143C1
:100C90002D098C46A90B1E438A039543B30B9A0377
:100CA00096433F09BA0B9403A74302962E467E4310
:100CB0000497B6464E19D7190C460196544305972A
:100CC0007E43371B7646BF1B3601B646BE0B361930
:100CD00000967646BC043719009C01D3641C00942E
:100CE0006400002F01D001263443029E049F754307
:100CF00066467E430496760034196E0034190094DB
:100D0000029C019E1C196643751BAE4606946546FF
:100D10004519059C05956C43594375460891691A18
:100D20000191049E01465143A41B0491611A009C49
:100D30000791E10605D061090122114302E072E04A
:100D40006EE06109089D00272C0A2D066918049D94
:100D50007C412A0A2D066918019D6241AC0DAD0245
:100D60006D185441079A910D920255196141029AEA
:100D7000644658435443069B059A5A43121A131B60
:100D80009A0E9B015B187A41010B0005C318514173
:100D9000220A200644195A419A4200D2491C0120D5
:100DA0004002814203D315230226F64302E01423B6
:100DB0000326F6432020C51AA9401746AF40DA4063
:100DC0000A4320460399D84009147318190551188D
:100DD000039A3843D2075140AC4009D001229440D5
:100DE00006D30022401C5141002C01D14008400094
:100DF0001E4A934212D3012203989206904207DBC7
:100E00000520400709181A480143C012414004E078
:100E1000032040070818C10FC907002009B0F0BD22
:100E20000020F107FAE705180C464C4111486D42C5
:100E3000A04115D394181A465A410E486442904175
:100E40000ED301204A004005824209D35A00824253
:100E500006D35940C90F084AC90700201143DDE7EE
:100E600000200649DAE700000000FF07FE07000047
:100E7000FFFFFF7F0000E0FF0000F07F0000F87F31
:100E80000121C9050123411842001B06D3185B0E3E
:100E90000AD0C1100722D206891840075242D14217
:100EA00001D5520089187047090208D50146002A69
:100EB00003D0C10FC9070020704710467047420297
:100EC00002D0002002497047072109050143F4E7D9
:100ED0000000F87F10B501469E240002CA15A30742
:100EE000002A02D01843002A04DBA21A002A0CDDD3
:100EF000D04010BD1206120E01D140004008A21AC7
:100F000003D4D04040420028F3DDFF2248001206FF
:100F1000904201D9002010BDC817C043584010BDF1
:100F20001F22030C02D10F2200041CD0030E01D19A
:100F30000002083A030F01D10001121F830F01D1F3
:100F40008000921E002801DB4000521ED20551187D
:100F5000021251181922904004D3491C002801D1D3
:100F60004908490008467047C10FC90700D04042F0
:100F7000012292071143D3E701218907D0E7704787
:100F8000F8B5264C4E00069DA6420AD8A64201D1CD
:100F9000002806D15E00A64203D8A6420AD1002A44
:100FA00008D00D242404254233D02946002000F027
:100FB00094F8F8BD0C461C4311D4994207D0C81AC6
:100FC00002D3EFF30080F8BDEFF30080F8BD801A84
:100FD00002D3EFF30080F8BDEFF30080F8BD0924E1
:100FE0002407E5008B4207D0581A02D3EFF30080A4
:100FF00006E0EFF3008007E0101A03D3EFF3008060
:10100000A04303E0EFF30080A043284380F300886F
:10101000F8BD009500F078F8F8BD00000000E0FF92
:1010200010B5FF231B0644009C421DD84C009C4277
:101030001AD80346124A0B4307D4401A02D3EFF3DF
:10104000008010BDEFF3008010BD081A03D3EFF34A
:101050000080904305E0EFF3008001219043C90731
:10106000084380F3008810BD0D231B041A4204D0EE
:101070001146002000F031F810BD00F04FF810BD0F
:101080000000009000487047200020207546FFF7C0
:10109000F9FFAE46050069465346C008C0008546C4
:1010A00018B020B5FFF76AF860BCB64600260027E6
:1010B000C0C5C0C5C0C5C0C5C0C5C0C5C0C5C0C508
:1010C000403D490849008D46704710B50446C0466A
:1010D000C0462046FFF743F810BDC80212D54803AA
:1010E000400F002804D0C803C04301218840704746
:1010F000EFF300800001000903210907084380F392
:10110000008870470020704710B500200249029AFD
:1011100000F00CF810BD00000000F87F10B5024888
:1011200000F004F810BD00000000C07F10B50C46B0
:101130001107090F092904D00A290AD008290CD15E
:1011400004E011460820FFF7C8FF06E0510606D567
:1011500001E0510601D50120C007214610BDD1068E
:1011600007D501010909CC084907000E0006044310
:1011700009E0410F20024907000A0143200E000642
:101180001D22D14101430846E7E7000080B58CB03D
:101190000B900A910A980B9904F026FBFFF770FE5A
:1011A0000122D20791430022374B04F097F900281F
:1011B0001DD1FFE70A980B9904F0B3F900280AD172
:1011C000FFE70A99334804F00FFB0B9904F01AFA71
:1011D0002E4908600AE00A992D4804F005FB0146F3
:1011E0000B9804F00FFA29490860FFE706E00B9816
:1011F0000A9904F0F9FA25490860FFE723480790A7
:10120000016825480190006804F0FCF9019A014644
:1012100007981160006821490691096804F0E4FA12
:1012200001990246079809921D4A126803920068C4
:1012300002901C480068096804F07EFA0299024690
:101240000398049204F078FA049904F0DBF905900D
:1012500015480068099904F06FFA059904F0D2F96D
:1012600006990246079808920068086008980F4996
:1012700004F057F9002803D1FFE70C480890FFE776
:1012800008980CB080BDC0460080664080002020D9
:101290000000B4C30000B44384002020900020204C
:1012A000040020208C002020880020200000C8435B
:1012B00080B582B07548402100F0D5FB402804D1AC
:1012C000FFE70120002804D10AE00120002807D10F
:1012D000FFE719204001E121C90002F0F9F85CE0C4
:1012E0006B48082100F0BFFB082804D1FFE701206C
:1012F000002804D10AE00120002807D1FFE71920C7
:1013000040014B21090102F0E3F845E0012081048E
:1013100001915F4800F0A7FB0199884204D1FFE7E3
:101320000120002804D10AE00120002807D1FFE7AE
:10133000E120C0001921490102F0CAF82BE053480E
:10134000082100F090FB082804D1FFE701200028C5
:1013500004D109E00120002806D1FFE7192041014E
:101360004C4802F0B5F815E04948102100F07BFB2D
:10137000102804D1FFE70120002804D109E0012052
:10138000002806D1FFE719204101084602F0A0F825
:10139000FFE7FFE7FFE7FFE7FFE702B080BDC046DA
:1013A00080B582B03948402100F05DFB402804D16F
:1013B000FFE70120002804D109E00120002806D120
:1013C000FFE719204001344902F082F85BE0304821
:1013D000082100F048FB082804D1FFE7012000287D
:1013E00004D109E00120002806D1FFE719204001BF
:1013F000284902F06DF845E001208104019124485C
:1014000000F031FB0199884204D1FFE70120002858
:1014100004D109E00120002806D1FFE71921880145
:10142000490102F055F82CE01848082100F01BFB98
:10143000082804D1FFE70120002804D10AE0012098
:10144000002807D1FFE74B2000011921490102F0D4
:101450003FF815E00E48102100F005FB102804D1DC
:10146000FFE70120002804D109E00120002806D16F
:10147000FFE719204101084602F02AF8FFE7FFE7DD
:10148000FFE7FFE7FFE702B080BDC04600000A406B
:1014900000200A40E20400006C07000082B00190C6
:1014A0000091009B0199D64A88581843885002B091
:1014B0007047C04610B585B00092024600980B9C5C
:1014C0000A9C099C089C079C049203AA1170029034
:1014D0000193029801990843079908430899084322
:1014E000099908430A9908430B990843049912780B
:1014F000920089182322D201885005B010BD81B016
:101500000090009911200202885801231843885046
:1015100001B0704782B001900091009B0199E34AAD
:1015200088581843885002B07047C04681B0009078
:1015300000990120C202EE48885001B07047C046B1
:1015400010B584B0079C069C039002910192009311
:1015500003984C4940180299019A1143009A11438B
:10156000064A00F0D1F80398524940180699079AA4
:101570001143034A00F0C8F804B010BD0100130085
:1015800007001F1F81B000900099504A50488850B2
:1015900001B0704780B582B00190009101980D496B
:1015A000401800990978A922120689180A4A00F001
:1015B000BFF80198112109024018009949680722D3
:1015C000120600F0B5F8009840780199034A885057
:1015D00002B080BD08080000030000FF10110000E9
:1015E00080B582B001900091019811210902401844
:1015F00000990122120400F087F802B080BD0000BB
:1016000082B001906846018000880199014A8850A3
:1016100002B070471411000081B000900099194A7F
:10162000885801231843885001B0704781B000905A
:1016300000990120C202AE48885001B07047C046F0
:1016400080B582B0019000910198112109024018E3
:10165000009A117AD368194352681143084A00F07E
:1016600053F8019807494018009A1178137C1943E0
:10167000527C1143E22200F047F802B080BDC04620
:10168000078007800411000080B582B001900091AE
:10169000019808494018009A1178537819439378B3
:1016A00019435368194392681143034A00F02CF818
:1016B00002B080BD08110000B900030081B00090A5
:1016C0000099F24A0248885001B0704704080000AF
:1016D000030000B180B582B00190009101980449E7
:1016E00040180099FF2200F00FF802B080BDC046FC
:1016F0000C11000082B001900199881E001F00BFEC
:10170000FCD2009002B0704784B003900291019225
:101710000398006800900098019988430090009811
:101720000299019A114008430399086004B0704778
:1017300084B0039002910192039800680090009891
:1017400001998843009000980299019A114008433A
:101750000399086004B0704784B00390029101922D
:1017600003980068009000980199884300900098C1
:101770000299019A114008430399086004B0704728
:1017800084B0039002910192039800680090009841
:1017900001998843009000980299019A11400843EA
:1017A0000399086004B0704784B0039002910192DD
:1017B0000398006800900098019988430090009871
:1017C0000299019A114008430399086004B07047D8
:1017D00082B001900091009B0199094A88581843F2
:1017E000885002B07047C04682B001900091009BC3
:1017F0000199034A88581843885002B07047C04680
:101800004810000082B00190009100980199952243
:101810005201885002B0704782B001900091009848
:10182000019995225201885002B0704782B0019010
:1018300000910098019995225201885002B070479A
:1018400082B0019000910098019995225201885030
:1018500002B0704782B001900091009801999522E2
:101860005201885002B0704782B0019000910098F8
:10187000019995225201885002B0704781B00090C2
:10188000009881005B4A885801235B061843885002
:1018900001B0704782B001900091009B0199034A0A
:1018A00088581843885002B07047C046281000007E
:1018B00082B00190009100980199074A885002B0C7
:1018C0007047C04682B00190009100980199024A89
:1018D000885002B07047C046D012000081B000901E
:1018E00000990120C202AC48885001B07047C04640
:1018F0000100002682B001900091019802494058F1
:101900000099084002B070473810000081B0009084
:1019100000988100374A1248885001B07047C0468D
:1019200081B0009000988100324A0D48885001B083
:101930007047C04610B584B0069C03900291019296
:1019400000930298019908430099084306990843B7
:101950000349084303998900264A885004B010BD02
:101960008100040081B0009000988100214A81200C
:10197000885001B07047C04681B000900098810047
:101980001C4A8120885001B07047C04682B0019047
:10199000009100981049084301998900154A885020
:1019A00002B0704710B584B0079C069C039002916A
:1019B00001920093029801990843009908430699FF
:1019C0000843079908430449084303998900094AD1
:1019D000885004B010BDC0468000040082B0019061
:1019E000009100988021084301998900014A88509C
:1019F00002B070470480424082B00190009101988B
:101A00002721C90140580099084002B0704782B0B0
:101A10000190009101982721C90140580099084080
:101A200002B0704782B00190009101982721C9014E
:101A300040580099084002B0704782B00190009170
:101A400001982721C90140580099084002B0704709
:101A500082B00190009101982721C9014058009956
:101A6000084002B0704782B0019000910198272190
:101A7000C90140580099084002B0704781B00090F9
:101A80000099A24AA248885001B07047040800009B
:101A900082B001900091009B0199034A8858184335
:101AA000885002B07047C0469013000082B0019089
:101AB0000091009801991B4A885002B07047C046B7
:101AC00082B00190009100980199164A885002B0A6
:101AD0007047C04682B00190009100980199114A68
:101AE000885002B07047C04682B0019000910098C3
:101AF00001990C4A885002B07047C04682B00190EC
:101B0000009100980199074A885002B07047C0467A
:101B100082B00190009100980199024A885002B069
:101B20007047C0469012000082B001900091009B67
:101B300001999D20420188581843885002B070478F
:101B400081B00090009909204202885801231B02AD
:101B50001843885001B0704781B000900099084A3E
:101B6000885801231843885001B0704781B0009015
:101B70000099034A885804231843885001B07047DD
:101B80002812000081B0009000990120C202C148D3
:101B9000885001B07047C0460100002681B0009017
:101BA00000995A4A5A48885001B0704781B0009055
:101BB0000099024A0020885001B0704714120000BA
:101BC00080B584B0019101460198039102A9088073
:101BD0000398092252028018098803225202FFF753
:101BE00093FD04B080BD000080B582B001900091EB
:101BF000019809494018009909780C22FFF7ACFDBB
:101C00000198012109034018009949780722FFF73C
:101C1000A3FD02B080BDC0460410000080B584B0B2
:101C2000019101460198039102A9088003980D4A89
:101C30008018098807221202FFF766FD04B080BDF4
:101C400080B584B0019101460198039102A9087002
:101C50000398044A801809780722FFF755FD04B05D
:101C600080BDC0463812000082B001906846017005
:101C700000780199014A885002B070472412000090
:101C800081B001466846017001783020484302491E
:101C9000405801B07047C0460011404081B00090EC
:101CA000009911200202885801231843885001B07E
:101CB0007047000081B0009000990120C202754871
:101CC000885001B07047C04680B582B00190009145
:101CD000019863494018009A117853781943937812
:101CE000194393881943D388194312891143024A2F
:101CF000FFF70AFD02B080BDFFFF000081B0009039
:101D00000099F44AF448885001B070470408000074
:101D1000030000B182B00190684601700378019918
:101D2000024A88581843885002B0704704110000D6
:101D300081B001466846017000780249086001B030
:101D40007047C04608030B4080B582B0014601A829
:101D50000170017802480322FFF7D6FC02B080BD73
:101D600000010B4080B58CB00B900A910A98407925
:101D7000C00700285CD0FFE70A9800790790002888
:101D800004D0FFE7079820280CD018E00B98882192
:101D90000691022200F0C4F906990B98032200F084
:101DA000BFF919E00B98212109010591022200F0E9
:101DB000B7F905990B98032200F0B2F90CE00B98E3
:101DC0000521C9010491022200F0AAF904990B9897
:101DD000032200F0A5F9FFE70B98002202920223EC
:101DE0000193114600F0B6F9029A0B98032303936E
:101DF000114600F0AFF90199029B0B98009119462A
:101E00001A4600F0DFF9029B03990B9800911946DE
:101E10001A4600F0D7F9019B029A0B98114600F080
:101E2000B7F9029A039B0B98114600F0B1F9FFE74E
:101E30000A98006808900A98007908A908710A9819
:101E4000807948710B9800F039F80CB080BD000023
:101E500081B000900099024A0120885001B070477B
:101E60000811000082B001900091009B0199034A83
:101E700088581843885002B07047C04628100000A8
:101E800081B0009000990120C2020248885001B040
:101E90007047C0460100002681B000900098812163
:101EA00049014058C0B201B0704781B0009000981D
:101EB0000321C902405880B201B0704780B58AB092
:101EC00009900891089800790790002804D0FFE74E
:101ED0000798202812D029E0099808990968491E16
:101EE00000F0CCF9099888210691002200F018F939
:101EF00006990998012200F013F92AE00998089937
:101F00000968491E00F0BAF909982D490491002288
:101F100000F006F9049909980122059200F000F9F1
:101F200005990998490700F09BF912E0099808996A
:101F30000968490800F0A2F909980521C90103912F
:101F4000002200F0EDF803990998012200F0E8F86A
:101F5000FFE709980023019319461A4600F0FAF8A2
:101F6000019A099801230293114600F0F3F8019BAE
:101F70000998009319461A4600F024F9019B02992A
:101F80000998009119461A4600F01CF9019B09981E
:101F900019461A4600F0FCF8019A029B099811466E
:101FA00000F0F6F80998C5494018089A1179527955
:101FB000114302221143034AFFF7E2FB0AB080BD3E
:101FC00001040000BFFF003080B584B0039002918F
:101FD00003980299496800F051F90298007801903D
:101FE000222856D80198810001A040588746C04653
:101FF0008920000093200000892000009320000029
:102000009320000093200000932000009320000004
:1020100093200000932000009320000093200000F4
:1020200093200000932000009320000093200000E4
:102030007D200000932000007D2000009320000000
:1020400093200000932000009320000093200000C4
:1020500093200000932000009320000093200000B4
:1020600093200000932000009320000093200000A4
:102070007D200000932000007D20000003980121B6
:10208000490700F0EDF805E00398002100F0E8F8BA
:1020900000E0FFE703980299098A0022009200F00D
:1020A000B1F8009B03980299C9681A4600F052F8EB
:1020B00002990878097A08430399804A885004B045
:1020C00080BDC04681B000900099E64AA94888507A
:1020D00001B0704704080000030000B182B0019015
:1020E00000910098019911221202885002B07047A5
:1020F00080B584B00390029101A802700399224A2E
:102100008918009101780098890040180090009883
:10211000029907229204FFF733FB04B080BDC0464A
:1021200080B584B00390029101A802700399074A18
:102130008918009101780098890040180090009853
:102140000299034AFFF71CFB04B080BD7018000021
:10215000DBB6C1FF10B586B005900491039202A8CA
:1021600003700599084A891801910178019889003E
:102170004018019001980499039A1143034AFFF70C
:10218000FFFA06B010BDC046301800007777020095
:1021900010B586B005900491039202A803700599CA
:1021A0003122D201891801910178019889004018E3
:1021B000019001980499039A11438F22FFF7E0FAE6
:1021C00006B010BD10B587B000910446009809997B
:1021D000069405900492039302A801700699084A98
:1021E000891801910178019889004018019005989B
:1021F00004990843039908430199086007B010BD8A
:102200005018000084B00390029101A80270039955
:10221000064A8918009101780098890040180090BA
:1022200002980099086004B07047C046101800007A
:1022300082B001900091009800780199694A885015
:102240000098407801990122120388500098807804
:102250000199024A885002B07047C0460C11000034
:1022600080B582B0019000910198144940180099FE
:1022700003221207FFF784FA02B080BD82B00190FA
:10228000009100980199024A885002B07047C046F8
:102290000818000081B000900099084A885801236E
:1022A0001843885001B0704781B000900099034AEC
:1022B000885801231843885001B070470418000063
:1022C00081B00090009911200202885801239843A0
:1022D000885001B0704781B000900099112002022F
:1022E000885801231843885001B0704782B001908C
:1022F0000091009B0199034A88581843885002B006
:102300007047C0462810000081B00090009901205D
:10231000C2024F48885001B07047C04680B582B0B5
:10232000019000910198FFF7CBFF0198112109025C
:102330004018009A11889378194392881143084AEB
:10234000FFF732FA01981E494018009A9179D37923
:102350001943127A11437E22FFF726FA02B080BD9C
:102360001867020081B0009000993E4A01488850E9
:1023700001B07047030000B180B584B003900291B2
:10238000019203980B49401802990B4AFFF7BCF9D8
:1023900003980A49401801993F22FFF7B5F90399BC
:1023A000074A8818895801221140FFF7ADF904B097
:1023B00080BDC04610110000FFFF00001411000096
:1023C0000411000082B001900091009800780199FA
:1023D000044A8850009840780199012212038850DD
:1023E00002B070470810000080B582B001900091E3
:1023F000019811210902401800990322D203FFF726
:1024000083F902B080BD000082B001900091009974
:1024100008784A781043498808430199112212022A
:102420008850009948688968090408430199024A5C
:10243000885002B07047C0460811000081B000907B
:1024400000990120C2020248885001B07047C0467E
:102450000100002681B000900099024A024888508D
:1024600001B0704704080000010000B181B0BA4A11
:1024700011886846018000211180405E01B07047DC
:1024800081B0B44A11886846018000211180405E05
:1024900001B0704780B5012001F08EFC80BD0000C6
:1024A00080B58AB00120FFF7EBFB012800D02AE1BC
:1024B00001208103A648FFF71DFA002842D0FFE75C
:1024C00009A9012008708103A148FFF7B6FA002886
:1024D00004D0FFE708A90120087003E008A9002044
:1024E0000870FFE7012041039948FFF7A6FA00288A
:1024F00004D0FFE707A90120087003E007A9002026
:102500000870FFE70898079940180999411806A82C
:1025100001700078002805D0FFE706A8007802289F
:1025200005D1FFE78B490888401C088004E08949F1
:102530000888401E0880FFE7012081038448FFF7D8
:1025400053F9FFE7012041038148FFF7D3F9002841
:1025500043D0FFE709A900200870012081037C48CF
:10256000FFF76BFA002804D0FFE708A901200870E4
:1025700003E008A900200870FFE701204103744828
:10258000FFF75BFA002804D0FFE707A901200870D5
:1025900003E007A900200870FFE708980799401892
:1025A0000999411806A801700078002805D0FFE7B6
:1025B00006A80078022805D1FFE766490888401C74
:1025C000088004E063490888401E0880FFE7012076
:1025D0004103EC48FFF708F9FFE70120C103E94890
:1025E000FFF788F9002842D0FFE705A9012008700D
:1025F000C103E448FFF721FA002804D0FFE704A94B
:102600000120087003E004A900200870FFE7012002
:102610004104FB48FFF711FA002804D0FFE703A9A3
:102620000120087003E003A900200870FFE7049868
:10263000039940180599411802A8017000780028F4
:1026400005D0FFE702A80078022805D1FFE742493C
:102650000888401C088004E03F490888401E088024
:10266000FFE70120C103FD48FFF7BEF8FFE70120A7
:102670004104FA48FFF73EF9002843D0FFE705A9D7
:10268000002008700120C103F448FFF7D6F90028A4
:1026900004D0FFE704A90120087003E004A900208A
:1026A0000870FFE701204104EC48FFF7C6F9002855
:1026B00004D0FFE703A90120087003E003A900206C
:1026C0000870FFE70498039940180599411802A87B
:1026D00001700078002805D0FFE702A800780228E2
:1026E00005D1FFE71C490888401C088004E01A490E
:1026F0000888401E0880FFE701204104EB48FFF7EF
:1027000073F8FFE7FFE7154A1088411C88B2118073
:102710004D281AD1FFE7FFF7B3FE4042104901915F
:102720000880FFF7A3FE019940420E4A1080002066
:10273000095E125E8918CA0F891849080A4A138867
:10274000C918118005490880FFE70AB080BDC0465E
:1027500000000A40960020209400202098002020AD
:10276000CE062020D0062020CA06202080B58CB0BE
:102770000120C1040B914E480A90FFF7BFF90A20CF
:1027800001F0DCFB0A980B99FFF764F8FFE70120E2
:1027900001054748FFF746F9014600200029099046
:1027A00010D1FFE7434A1188481C1080424A01209B
:1027B000002307939142089001DB0798089008983E
:1027C0000990FFE70998C007002801D0FFE7DEE77E
:1027D0003A48FFF76AFB3A490880364900200880EA
:1027E000FFE7012001053248FFF71CF901460020F0
:1027F0000029069010D0FFE72E4A1188481C10804F
:102800002D4A0120002304939142059001DB049896
:10281000059005980690FFE70698C007002801D0AC
:10282000FFE7DEE723490020039008802348FFF7F5
:102830003CFB014623480180008821490988401A51
:10284000FEF7EFF9039B0A461F494A6008600868D3
:1028500049681A4602F02CFE002807D1FFE71A4902
:1028600048680122D20750404860FFE716490291AC
:102870000868496800220192144BFDF733FF019A62
:102880000B4602994B60086008684968104B02F0DB
:102890001AFE002807D1FFE70B4908684A680D496E
:1028A0004A600860FFE70B49086849680CB080BDC2
:1028B00000200A40DC062020983A000000208640D4
:1028C000D8062020DA062020B00020200000144086
:1028D00000406F40B800202080B586B004A90020D9
:1028E000087003AA32211170FFF71AF8F448012189
:1028F000FFF70EF9FFE7F2480121FFF7A9F80146BB
:102900000020C9070029029006D0FFE703A800783D
:10291000411E88410290FFE70298C007002808D0B6
:10292000FFE70398401E03A90870052001F013FB80
:10293000E1E703A80078002806D1FFE700F090F84F
:1029400005A90120087018E0E948019002210091D2
:10295000FFF7DEF8052001F0FEFA00990198FEF776
:1029600083FF0020FFF708F801980121FEF7AAFF76
:10297000FFE7049805A90870FFE705A8007806B0EE
:1029800080BDC04600000A4080B586B005A904910C
:1029900008700020FEF7F0FFD54802900121039156
:1029A000FEF790FF02980221FEF75EFF029803995E
:1029B000FEF75AFF052001F0CEFA049800780028AF
:1029C00005D1FFE7CA480121FEF74EFF04E0C848E1
:1029D0000121FFF79DF8FFE7C54801900221009112
:1029E000FFF796F8052001F0B6FA00990198FEF776
:1029F0003BFF01980121FFF78BF806B080BDC04670
:102A000000000A4080B584B00020FEF7B5FFB8484A
:102A1000019001210091FEF755FF019802210291DA
:102A2000FEF722FF00990198FFF772F801980299CA
:102A3000FFF76EF80520039001F08DFA00990198D8
:102A4000FEF712FF039801F086FA01980299FEF74B
:102A50000BFF039801F07FFA04B080BD00000A402C
:102A600080B584B00020FEF787FFA14801900121C6
:102A70000291FEF727FF019802210091FEF7F4FE74
:102A800001980299FEF7F0FE00990198FFF740F8CF
:102A90000520039001F05FFA01980299FFF738F8DA
:102AA000039801F058FA04B080BDC04600000A4007
:102AB00080B584B000230393009301200190420469
:102AC000029230201946FEF735FF0198029A039BC7
:102AD000C006009027201946FEF72CFF029A039BA0
:102AE000009333201946FEF725FF029A039B0093BB
:102AF00032201946FEF71EFF04B080BD80B50248A3
:102B0000FFF7C8FB80BDC0460000864010B586B008
:102B1000044605A8047004AC217003A90A7002A938
:102B20000B700078802801DBFFE759E004A80078EB
:102B3000402801DBFFE753E005A8007803A90978E6
:102B40004018812806DBFFE705998020401A03A979
:102B50000870FFE704A8007802A909784018412806
:102B600006DBFFE704994020401A02A90870FFE73E
:102B7000049869460870FFE76846007804A9097858
:102B800002AA1278891888422ADAFFE7059801A973
:102B90000870FFE701A8007805A9097803AA127850
:102BA0008918884216DAFFE768460078072201464E
:102BB000114001238B40C008C1010A48411801A8F7
:102BC0000278885C98438854FFE70198401C01A96B
:102BD0000870DFE7FFE70098401C69460870CBE704
:102BE00006B010BDC000202080B582B00120019049
:102BF00081034048FEF76EFF019881073C48FEF7CD
:102C000069FF02B080BDC04680B586B005A90870D6
:102C100004A900200870FFE704A80078072826DC34
:102C2000FFE705A8007804A90A788021D14008426E
:102C300006D0FFE7012081072D48FEF74BFF05E096
:102C4000012081072A48FEF7F1FDFFE701208103FB
:102C5000039128480290FEF73DFF02980399FEF782
:102C6000E5FDFFE70498401C04A90870D4E70120A3
:102C7000810301911F480090FEF72CFF00980199F5
:102C8000FEF7D4FD06B080BD80B586B0012001906E
:102C90008107039116480290FEF71CFF01988103FB
:102CA000059114480490FEF715FF02980399FEF76A
:102CB000BDFD04980599FEF7B9FD06B080BDC0467C
:102CC00000000A4080B584B0012001908107039183
:102CD00007480290FEF7AAFD019881030548FEF718
:102CE000F9FE02980399FEF7F5FE04B080BDC046D8
:102CF00000000A4000200A4080B5FFF775FFAE20B3
:102D000000F0E6FAD52000F0E3FA802000F0E0FAC7
:102D1000A82000F0DDFA3F2000F0DAFAD32000F01E
:102D2000D7FA002000F0D4FA402000F0D1FAA12018
:102D300000F0CEFAC82000F0CBFADA2000F0C8FA92
:102D4000122000F0C5FA812000F0C2FACF2000F076
:102D5000BFFAD92000F0BCFAF12000F0B9FADB206C
:102D600000F0B6FA302000F0B3FAA42000F0B0FA78
:102D7000A62000F0ADFA8D2000F0AAFA142000F091
:102D8000A7FAAF2000F0A4FA80BD83B002900191B1
:102D900001200090FFE70198411E0191002805D015
:102DA000FFE70298009948430090F4E7009803B0C9
:102DB000704780B584B0024603A8027002AA01924F
:102DC00011700078B021084300F082FA0198007871
:102DD0000009103000F07CFA019800780F210840BB
:102DE00000F076FA04B080BD10B586B005AC207056
:102DF00004A8017003A8027002A8037000780828D4
:102E000011D1FFE705A8007804A9097803AA127870
:102E10001201124BD218124BD21800920822102322
:102E200000F0BEF816E002A80078062811D1FFE7EE
:102E300005A8007804A9097803AA14780622134685
:102E40006343054C1B19C03B0093082300F0A8F80E
:102E5000FFE7FFE706B010BD38590000725B0000C5
:102E600000FEFFFFF0B597B01C4613460D46064620
:102E70001E981D991C9A16AF3E7015AE35701394AE
:102E8000129311AB1A7010AA11700FA90870129842
:102E9000139900231A4602F02EFB00280AD1FFE7FF
:102EA00016A8007815A909780FAA13782B22FFF726
:102EB0009BFF0EE016A8007815A909780FAA1378D1
:102EC0002D22FFF791FF13980121C9074840139065
:102ED000FFE716980FA906910C780019039015A822
:102EE00007900078029012981399FDF755FE029909
:102EF0000246039811AB1B780094C0B200F0F0F8C2
:102F0000069A07991698119B5C1C13781A4662431F
:102F100080180978C0B22E22FFF766FF129804903D
:102F200013990591FDF738FEFDF783FE02460498DC
:102F30000B460599FDF7B3FB1391129010A80B9067
:102F400001780A20FFF721FF069A014607980E91A3
:102F50001699119B9B1C147822465A4389180C9190
:102F600000780D9012980890139809900E980A9086
:102F7000FDF75FFE024608980B460999FDF75CFED7
:102F8000FDF70AFE0A99FDF709F90B9B0C980A4612
:102F90000D991B780094C0B200F0A2F817B0F0BDF4
:102FA000F0B587B004460C9806A8047005AC2170F3
:102FB00004A90A7003A90B700078802801DBFFE7E1
:102FC0008CE005A80078402801DBFFE786E006A832
:102FD000007805A9097804AA127803AB1B78FFF7DB
:102FE00095FD01A900200870FFE701A8007803A95A
:102FF0000978491E4A0F8918C910491C88426DDAA0
:10300000FFE702A900200870FFE702A8007804A9E2
:10301000097888425CDAFFE706A8007802A90978F7
:103020004018802801DBFFE752E005A80078C008BF
:1030300001A909784018082801DBFFE74EE00C9849
:1030400001A90B7804AA12785A4302AC2478121909
:10305000855C05A80278072716463E40B540D20891
:10306000D218D301994AD31806AA127814191A5DF6
:103070002A431A550078C00809784018401C0828CF
:1030800001DBFFE71FE00C9801A9097804AA137877
:103090004B4302AA12789B18C35C05A8007807244A
:1030A000054625400824641BE340C0084018C001C1
:1030B0008649401806A90978891841188022885C39
:1030C00018438854FFE70298401C02A908709CE747
:1030D000FFE70198401C01A9087086E707B0F0BD22
:1030E000B0B58AB004460E9809AD2C7008AC2170BA
:1030F000079206A90B7005A9087004A900200870A2
:10310000FFE704A8007806A9097888422BDAFFE7D0
:10311000099904A80078059A42438918029108A9E0
:10312000097803910799009106A90978C0434118CD
:103130000A200190FFF729FE01460098FDF72EF8BE
:103140000199FDF72BF802980A46039930231A4398
:1031500005AB1B78C0B2FFF747FEFFE70498401CA1
:1031600004A90870CDE70AB0B0BDB0B58CB0044674
:1031700010980BAD2C700AAC2170099208A90B7045
:1031800007A90870099800280CD4FFE70BA800785D
:103190000AA9097807AA13782B22FFF725FE0998B8
:1031A00005900CE00BA800780AA9097807AA137803
:1031B0002D22FFF719FE099840420590FFE706A966
:1031C00000200870FFE706A8007808A9097888425F
:1031D0002CDAFFE70B9906A80078431C079A5A439C
:1031E000891803910AA9097804910599019108A900
:1031F0000978C04341180A200290FFF7C6FD014636
:103200000198FCF7CBFF0299FCF7C8FF03980A4628
:10321000049930231A4307AB1B78C0B2FFF7E4FDD3
:10322000FFE70698401C06A90870CCE70CB0B0BDBB
:1032300010B586B005AC207004A80170039202A8F6
:10324000037001A900200870FFE7039801A909781D
:10325000405C002815D0FFE7059801A90C7802A969
:103260000B7819466143401804A90978039A125D46
:10327000C0B2FFF7B9FDFFE70198401C01A9087033
:10328000E3E706B010BD000080B582B001A90020C0
:103290000870FFE701A80078072814DCFFE701A801
:1032A000009000780021FFF784FD00980078C101AC
:1032B00006484018802100F020F8FFE70198401CE4
:1032C00001A90870E6E702B080BDC046C00020201A
:1032D00080B582B001A900910870FFF7D5FC782075
:1032E000FFF792FC0020FFF78FFC00980078FFF7B3
:1032F0008BFCFFF7E7FC02B080BD80B584B0039083
:1033000002A80170FFF7C0FC7820FFF77DFC402089
:10331000FFF77AFC01A900200870FFE701A80078F8
:1033200002A9097888420CDAFFE7039801A9097815
:10333000405CFFF769FCFFE70198401C01A9087099
:10334000ECE7FFF7BFFC04B080BD000070B58EB0A5
:1033500001F0F6FE544A322000210B9108240D940E
:103360002346FFF765FF0B995048027800944620EA
:1033700001260C963346FFF7B3FE0B994C4A5020BA
:1033800004902346FFF754FF0B994A4802780094B3
:1033900064203346FFF7A4FE4748026800945A2091
:1033A000282107910423FFF7E0FE07994348059081
:1033B0000268009402230846FFF7D7FE40480068E1
:1033C000FDF75EFD02460B4602940196032500952B
:1033D000142106910846FFF745FD3A480068FDF7BD
:1033E0004FFD024604980B460699029401960095FB
:1033F000FFF738FD059A069807990C9B1268009410
:10340000FFF76EFE8E4809904021FEF7F5FA0B9902
:103410000C9B0246403A5042424100940846FFF756
:103420005FFE29480A902146FEF7E6FA0B990C9BAD
:103430000246083A5042424100942046FFF750FEAF
:103440000A9810210891FEF7D7FA0B990C9B0246B7
:103450000898103A55426A410094FFF741FE0998D6
:103460000D99FEF7C9FA0B990C9B02460D98083A84
:103470005442624100901820FFF732FE0A980C99DE
:103480008904FEF7B9FA0B990C9B02460D980F4C74
:1034900012195442624100902020FFF721FEFFF7ED
:1034A000F3FE0EB070BDC046F3610000CC062020D4
:1034B000F0610000CD042020AC002020D4062020A4
:1034C000C0042020A800202000200A400000FCFFAB
:1034D00080B58AB00990089109982F49884203DB8A
:1034E000FFE7304807900DE009982C49884203DC3B
:1034F000FFE72B48069002E009980690FFE7069840
:103500000790FFE70798099008982349884203DB52
:10351000FFE7244805900DE008982049884203DC25
:10352000FFE71F48049002E008980490FFE7049822
:103530000590FFE7059808900998002803D5FFE754
:1035400000200990FFE70898002803D5FFE7002036
:103550000890FFE7012003908106E8480190FEF7FC
:10356000C3FA01980399C906FEF76AF908990E484B
:1035700002900022FEF746FE01982021FEF760F936
:1035800001981021FEF7B0FA0298039A0999FEF704
:1035900039FE0AB080BDC0468D0A000073F5FFFFFA
:1035A00074F5FFFF8C0A00000000864080B586B0ED
:1035B00004A9002003900870FEF7B2F9039805A94A
:1035C0000870FFE705A80078072834DCFFE7CB4840
:1035D000029002210091FEF747F90520019000F0CA
:1035E000BAFC00990298FEF793FA019800F0B3FC38
:1035F00002980499490004AA11700121FEF728FAE3
:10360000C007002804D0FFE70120002804D109E00A
:103610000120002806D1FFE704980121084304A9EE
:103620000870FFE7052000F096FCFFE70598401CB6
:1036300005A90870C6E704A8007806B080BDC0469A
:1036400000000A4080B58AB01A490120079080071F
:103650000990FDF79FFF07990998002306930193AE
:10366000009349041A46FDF76BFF069B09980493E3
:10367000039302930193009302221946FDF71AFF68
:10368000079909980904FDF7ABFF09987D21890086
:10369000FDF7B6FF0799099809020891FDF7FEFEAC
:1036A00008990998FDF736FF0998FDF728FF0AB039
:1036B00080BDC0466461000080B582B008490948F9
:1036C0000190FDF7BDFF01980749FDF7DDFF019867
:1036D0004D21FDF7FFFF0198FDF79EFF02B080BD71
:1036E0006C610000008000408061000080B592B0F5
:1036F000162007210891FEF771F97F4810904021AC
:10370000FEF7D6F8182004210A91FEF767F9109801
:1037100001210F910902FEF7CBF813200521039137
:10372000FEF75CF90F98410274480C90FEF7C0F860
:1037300003990B20FEF752F90F991098FEF7B8F88D
:103740001D2003210E91FEF749F90F9910984903A6
:10375000FEF7AEF80A990023079301930093252002
:1037600004901A46FEF71EF9079B0A9901930093ED
:103770000E2005901A46FEF715F90498FEF77EF81C
:103780000598FEF77BF8142002210691FEF726F932
:10379000069915200990FEF7F9F806992D20FEF7F5
:1037A0001DF906993520FEF7F1F80798FEF7DAF8CB
:1037B0003820FEF7D7F83920FEF7D4F83120FEF78D
:1037C000D1F82120FEF7CEF82720FEF79FF8302011
:1037D000FEF79CF81E20FEF7C5F80A98FEF7C2F81F
:1037E0002020FEF7BFF817200B90FEF7BBF81F2034
:1037F000FEF7B8F80E98FEF7B5F82A20FEF7B2F8F3
:103800000C20FEF7AFF83B20FEF7ACF83A20FEF7AD
:10381000A9F83320FEF7A6F83220FEF7A3F8082017
:10382000FEF7A0F80920FEF79DF81A20FEF79AF897
:103830001B20FEF797F82B20FEF768F80898FEF794
:1038400065F81020FEF762F80F20FEF75FF80A20F7
:10385000FEF75CF82320FEF759F82220FEF756F811
:103860002420FEF753F82620FEF750F82F20FEF70D
:103870004DF82C20FEF776F80F98FEF773F80C98A9
:103880000E994907FDF7C8FF0C981D49FEF718F976
:103890000C981C49FEF70CF809990C988906FEF75C
:1038A000F7F80A990C98FEF73FF90B990C98490321
:1038B0000D91FDF78DFF0C980D99FDF7EBFF10981A
:1038C0001149FDF7A9FF10981049FEF7F9F8109873
:1038D0000F49FDF7EDFF0E9910980902FEF724F944
:1038E0000F99109809051191FDF772FF1098119921
:1038F000FDF7D0FF12B080BD00200A4000000A4052
:103900003310000C3310006C82C04B0C000C800193
:1039100082CCCB0D80B582B01249E6480190FEF70B
:1039200063F9019803214902FEF74AF90198FEF76D
:1039300007F90198FEF73AF901980721FEF794F983
:10394000019800210091FEF77BF900990198FEF79C
:1039500065F90198FEF70AF90198FEF7FDF802B043
:1039600080BDC0468C61000080B588B02E49D0482B
:103970000790FEF75DFC07982C49FEF7F3F90798CE
:1039800000230493009319461A46FEF71BFC049A81
:1039900007981146FEF7ACFB049A07982449059155
:1039A000FEF730FC049B0798012102910091194613
:1039B0001A46FEF707FC029A04990798FEF798FB4F
:1039C000029A05990798FEF71DFC049B07980221AF
:1039D0000391009119461A46FEF7F4FB039A0499E5
:1039E0000798FEF785FB039A04990798FEF70AFCEF
:1039F000049B079803210691009119461A46FEF789
:103A0000E1FB0499069A0798FEF772FB0599069A5E
:103A10000798FEF7F7FB0798FEF71AFA07980F21A9
:103A2000FEF75CFB08B080BD8E6100009461000071
:103A30007F0C000080B582B00649A3480190FEF7D4
:103A400043F901980121FEF765F90198FEF726F97F
:103A500002B080BD9C61000080B582B00020019062
:103A6000FEF766F90198FEF76FF902B080BD00001D
:103A700080B584B011498D480390FEF7D9FB0398B7
:103A80000F49FEF71BFA039800230293009319468F
:103A90001A46FEF797FB029A03981146FEF728FB99
:103AA000029A03980749FEF7ADFB0398FEF7D0F999
:103AB00003980121FEF712FB04B080BDA66100004F
:103AC000AC610000204E000080B582B00849B948C2
:103AD0000190FEF7ADFB01980649FEF775FA0198D3
:103AE0000121FEF7BFF90198FEF7B2F902B080BDDF
:103AF000B4610000B861000080B582B00D496E4825
:103B00000190FEF75FFC01980B49FEF707FC019856
:103B10000021FEF769FC019811211722FEF72CFC09
:103B2000019841210901FEF7E1FB0198FEF7D3FB63
:103B300002B080BDCC610000CE61000080B582B0D3
:103B40000D495E480190FEF73DFC01980B49FEF7D8
:103B5000E5FB01980021FEF747FC0198D0211522D2
:103B6000FEF70AFC019801218902FEF7BFFB0198CC
:103B7000FEF7B1FB02B080BDD8610000DA61000041
:103B800080B504494F48FEF73FFC05208001FDF752
:103B9000B1FD80BDE461000080B500F029F8FFF7B9
:103BA000A5FDFFF759FFFFF763FFFFF7DDFEFFF706
:103BB0008BFFFFF7AFFEFFF79FFFFFF7BFFFFFF79A
:103BC00041FDFFF779FDFFF7DBFFFFF733FF054905
:103BD0007422002088540449B82288540349885428
:103BE00080BDC0468C052020D00420200406202063
:103BF00080B58CB059480090FDF740FF2A480190ED
:103C0000FDF73CFF29480290FEF75CFA2848039034
:103C1000FEF758FA67480490FEF754FA25480590D5
:103C2000FDF7BCFF24480690FEF79CFB2348079055
:103C3000FEF798FB012080070890FDF7A3FC2048C1
:103C40000990FDF73BFD1F480A90FEF703FC1E4854
:103C50000B90FEF753F80098FDF740FE0198FDF732
:103C60003DFE0298FEF70CF90398FEF709F9049857
:103C7000FEF706F90598FDF785FF0698FEF744FB69
:103C80000798FEF741FB0898FDF750FC0998FDF7EF
:103C9000CDFC0A98FEF7D2FB0B98FEF70BF810202C
:103CA000FDF728FD0CB080BD00200A400080864052
:103CB0000000864000200F4000801040002010408F
:103CC00000800040000003400000024080B588B042
:103CD00007A90870002005900690FDF74DFE1F48CB
:103CE00004900121FDF7EEFD04980221FDF7BCFDD3
:103CF00005980690FFE7069807282DDCFFE707A840
:103D00000078C009002805D0FFE714480121FDF71D
:103D1000FFFE04E011480121FDF7A6FDFFE70220A8
:103D2000029000F018F902990C480190FDF7F0FE9E
:103D30000520039000F00FF901980299FDF794FD1A
:103D4000039800F008F90798400007A90870FFE7FA
:103D50000698401C0690CEE708B080BD00000A40DF
:103D600080B51448FEF798F8012815D1FFE70B48F5
:103D70000088012805DBFFE708490888401E088005
:103D8000FFE707480078012805DBFFE704490878CA
:103D9000401E0870FFE7FFE780BDC046C404202036
:103DA000C106202080B5132000F01AF80148FEF764
:103DB0007BFA80BD0020864081B0014668460170D4
:103DC00000214056002809D4FFE7684601781F20EB
:103DD0000140012088400C490860FFE701B07047AE
:103DE00081B001466846017000214056002809D480
:103DF000FFE7684601781F20014001208840024902
:103E00000860FFE701B0704700E100E081B000907A
:103E100001B0704780B584B00290284800682849F6
:103E2000096801F0E1FC029901F0DEFC01900198C3
:103E3000244901F076FB002806D1FFE701982449C8
:103E400001F0E0FB01900DE001981F4901F05EFBDD
:103E5000002806D1FFE701981C4901F0D3FB01902F
:103E6000FFE7FFE701987F21C90501F05AFB002811
:103E700006D1FFE7192000010021FFF729FB15E01B
:103E80000198144901F042FB002806D1FFE71920F0
:103E900001010020FFF71CFB07E000210846FFF7A7
:103EA00017FB03A90120087004E0FFE703A9002025
:103EB0000870FFE703A8007804B080BDC00420208C
:103EC000A800202000003443000034C30000B443A5
:103ED0000000B4C3000080BF80B584B0FEF746FC8C
:103EE000FCF724FE0146144801700078152821DBF8
:103EF000FFE71148007827281CDCFFE77D200090B1
:103F0000C100019100200290FFF7E2FA00988000C2
:103F1000039000F013F801990846FFF7D9FA0398C7
:103F200000F00CF801980299FFF7D2FA039800F01C
:103F300005F8FFE704B080BDCC04202080B582B036
:103F4000019001997D200002484301900198FDF7FE
:103F5000D1FB02B080BD80B582B0019001984001D4
:103F600001900198FDF7C6FB02B080BD80B5A4B0FA
:103F70000021B848415E032048430A21FCF718F9A4
:103F8000B5490860B5480078012839D1FFE7B44841
:103F90000078012834D1FFE7B24901200870B24807
:103FA0000068012809D1FFE7002123910846FFF7A7
:103FB0008FFA2398AA49087020E0AC482090AC49B9
:103FC0001F9109680068FDF7E1F80146A9482190B2
:103FD00001F00AFCFCF77EFF1F990246209822920E
:103FE00009680068FDF7D2F8219901F00BFBFCF796
:103FF00071FF01462298FFF76BFAFFE700F0DBFD47
:1040000096480078022800D087E09548007802287A
:1040100000D082E093490220087097480068002889
:1040200004D1FFE7002001F0C7F974E0924800686E
:10403000012821D1FFE788480068904988421BD3B6
:10404000FFE78F4800781E90002804D0FFE71E98F5
:10405000012808D00EE080480068FD4908608849C2
:104060000120087007E07C480068FE490860FDF701
:104070001FF900E0FFE74DE07F480068022821D1EA
:10408000FFE775480068C008E1281BD3FFE77C48BC
:1040900000781D90012804D0FFE71D9802280BD05E
:1040A0000EE0F348FFF7B6FE002804D0FFE774499E
:1040B00002200870FFE704E0ED4801F07DF900E020
:1040C000FFE726E06C48006803280CD1FFE7624850
:1040D0000068E849884206D3FFE7FDF7E9F8684938
:1040E0000020087014E06448006804280FDBFFE734
:1040F00059480068E049884209D3FFE700211C9134
:104100000846FFF7E5F91C9855490870FFE7FFE7F7
:10411000FFE7FFE7FFE700F04DFD50480078032878
:1041200000D002E14E480078032800D0FDE04D4960
:104130000320087050480068002842D1FFE7CF48AC
:1041400000781B90002808D0FFE71B98012813D0A7
:10415000FFE71B98022825D031E0C948FFF75AFE37
:10416000002808D0FFE7C549012008703A480068D8
:10417000B7490860FFE723E037480068B9491A915A
:104180000860BF4801F018F91A980068B04909683A
:10419000401A00094B2804D3FFE7B84902200870F1
:1041A000FFE70DE00020FFF735FE002806D0FFE70F
:1041B0007D2081000846FFF78BF9FFE700E0FFE76D
:1041C000B1E02D480068012827D1FFE7AB4800780F
:1041D0001990012808D0FFE7199802280CD0FFE7B2
:1041E0001998032810D016E01B4800689849086009
:1041F000A249032008700FE017480068944908603E
:104200009E490320087007E013480068954908603C
:10421000FDF7C6F800E0FFE784E0174800680228D1
:1042200064D1FFE795480078C01E189003285BD83A
:104230001898810001A040588746C0464D420000B2
:1042400085420000A3420000CF4200008B490420B9
:1042500008704AE0CA062020AC002020CC062020AE
:10426000CD042020C0062020C8042020C004202027
:10427000A800202000004844D4062020B6030000F7
:10428000E9062020FB48FFF7C5FD002808D0FFE71E
:104290007A4905200870FE4800686D490860FFE70C
:1042A00023E0FB4800686F4917910860F14801F06E
:1042B00083F81798006866490968401A00094B2876
:1042C00004D3FFE76D4906200870FFE70DE0F148D1
:1042D000FFF7A0FD002806D0FFE74B20810008462D
:1042E000FFF7F6F8FFE700E0FFE71AE0EA480068AA
:1042F00003280AD1FFE761480078062803D1FFE7C9
:10430000FCF7D6FF00E0FFE70AE0E3480068042876
:1043100005D1FFE700210846FFF7DAF8FFE7FFE7DE
:10432000FFE7FFE7FFE700F044FCDC4800780428E3
:1043300000D0FBE0DA480078042800D0F6E0D94944
:1043400003200870D4480068002842D1FFE74B489A
:1043500000781690002808D0FFE71698012813D09F
:10436000FFE71698022825D031E04548FFF752FDB7
:10437000002808D0FFE7414901200870C4480068C0
:1043800033490860FFE723E0C148006835491591CB
:1043900008603B4801F010F8159800682C4909683E
:1043A000401A00094B2804D3FFE734490220087063
:1043B000FFE70DE00020FFF72DFD002806D0FFE706
:1043C0007D2081000846FFF783F8FFE700E0FFE764
:1043D000ABE0B1480068012829D1FFE72748007801
:1043E0001490012808D0FFE7149802280CD0FFE7AA
:1043F0001498032810D018E0A548006814490860F4
:104400001E490320087011E0A148006810490860A7
:104410001A490320087009E09D48006811490860A6
:10442000FCF7BEFFFFF758FD00E0FFE77CE09A488D
:10443000006802285AD1FFE710480078C01E139088
:10444000032851D81398810002A040588746C046DF
:10445000E00620206944000085440000A3440000D9
:10446000CF440000E40620200449042008703CE00A
:1044700000003743C4090000AC0D0000E80620200E
:104480000080A1437B48FFF7C5FC002808D0FFE768
:104490008549052008707E48006884490860FFE768
:1044A00023E07B480068824912910860714800F05F
:1044B00083FF129800687D490968401A00094B285B
:1044C00004D3FFE7784906200870FFE70DE0714844
:1044D000FFF7A0FC002806D0FFE74B20810008462C
:1044E000FEF7F6FFFFE700E0FFE71CE06A48006820
:1044F00003280CD1FFE76C480078062805D1FFE7B8
:10450000FCF7D6FEFFF7E8FC00E0FFE70AE06248B0
:104510000068042805D1FFE700210846FEF7D8FF10
:10452000FFE7FFE7FFE7FFE7FFE741E35B480078CE
:10453000062800D001E25A480078062800D0FCE1A5
:104540005C480078052800DDF6E15A48007801282B
:104550000AD0FFE757480078032805D0FFE7554801
:104560000078052800D01EE14E49032008704A4813
:104570000068002842D1FFE74B48007811900028DE
:1045800008D0FFE71198012813D0FFE711980228FF
:1045900025D031E04848FFF73DFC002808D0FFE770
:1045A0004149012008703A48006840490860FFE727
:1045B00023E0374800683E49109108603E4800F00B
:1045C000FBFE1098006839490968401A3B49884247
:1045D00004D3FFE7344902200870FFE70DE0002014
:1045E000FFF718FC002806D0FFE77D208100084671
:1045F000FEF76EFFFFE700E0FFE7A7E02648006850
:10460000012827D1FFE7284800780F90012808D01B
:10461000FFE70F9802280CD0FFE70F98032810D06F
:1046200016E01B480068214908601F4903200870F4
:104630000FE0174800681D4908601B4903200870F7
:1046400007E0134800681A490860FCF7A9FE00E07B
:10465000FFE77AE010480068022865D1FFE71248BA
:104660000078C01E0E9003285CD80E98810002A02E
:104670004058874600005C4389460000C146000060
:10468000DF4600000B4700000749042008704AE09D
:10469000AC00202000003443D4062020CC0620208B
:1046A000CD042020C0062020E8062020E00620209F
:1046B000E4062020C60420200080A24397040000C6
:1046C000F048FFF7A7FB002808D0FFE7EE490520D8
:1046D0000870EE480068EE490860FFE723E0EB4809
:1046E0000068EC490D910860E64800F065FE0D9801
:1046F0000068E7490968401AE749884204D3FFE7A0
:10470000E14906200870FFE70DE0E448FFF782FB6F
:10471000002806D0FFE74B2081000846FEF7D8FEB0
:10472000FFE700E0FFE70FE0DD48006803280AD15B
:10473000FFE7D5480078062803D1FFE7FCF7B8FD6E
:1047400000E0FFE7FFE7FFE7FFE7FFE7D448006887
:10475000042827DBFFE7CC4800780C90062804D01B
:10476000FFE70C9807280BD01AE00020FFF752FB58
:10477000002804D0FFE7C44907200870FFE710E0D5
:10478000C8490878401C0870BF4900200870C64915
:104790000880C3490860BF490860BD490860FFE759
:1047A000FFE7FFE7B9E0BF48007800280AD0FFE73D
:1047B000BC480078022805D0FFE7BA4800780428F2
:1047C00000D0A9E0FD4902200870B5480068002823
:1047D00008D1FFE7B34800788100F948405800F05D
:1047E000EBFD98E0FE480068012821D1FFE7F7487B
:1047F0000068F44988421BD3FFE7F34800780B9028
:10480000002804D0FFE70B98012808D00EE0EF48FD
:104810000068F8490860FC490120087007E0EB488F
:104820000068F2490860FCF743FD00E0FFE771E033
:10483000EB480068022825D1FFE7E4480068C0087B
:10484000E1281FD3FFE7F04800780A90012804D040
:10485000FFE70A9802280BD012E0EC48FFF7DAFADB
:10486000002804D0FFE7E84902200870FFE708E0CD
:10487000E64800F0A1FDD5480068DE49086000E088
:10488000FFE746E0D6480068032810D1FFE7CF488D
:104890000068DB4988420AD3FFE7FCF709FDCB48F3
:1048A0000068D2490860D8490120087030E0CC483F
:1048B000006804282BDBFFE7C4480068D149884220
:1048C00025D3FFE7D04800780990012804D0FFE7FE
:1048D000099802280BD018E00020FFF79BFA002867
:1048E00004D0FFE7C84902200870FFE70EE0BB498B
:1048F0000878401C0870C44900200870B849086056
:10490000BA490860BB49086000E0FFE7FFE7FFE73E
:10491000FFE7FFE7FFE7FFE7FFE7B048007806287B
:1049200009DBFFE7002108910846FEF7D1FD089852
:10493000A8490870FFE7FFE739E1A5480078052896
:1049400000D033E1A3480078052800D02EE1A24929
:1049500003200870A1480078032800DD25E19E4966
:10496000032008709E480068002842D1FFE79D4858
:1049700000780790002808D0FFE70798012813D097
:10498000FFE70798022825D031E09C48FFF742FA5C
:10499000002808D0FFE79349012008708B48006881
:1049A00094490860FFE723E0884800688F49069132
:1049B0000860924800F000FD069800688D4909687B
:1049C000401A8D49884204D3FFE7864902200870C7
:1049D000FFE70DE00020FFF71DFA002806D0FFE7F3
:1049E0007D2081000846FEF773FDFFE700E0FFE74A
:1049F000A2E07B480068012827D1FFE779480078CA
:104A00000590012808D0FFE7059802280CD0FFE7A1
:104A10000598032810D016E06C48006875490860B6
:104A20007049032008700FE0684800687149086009
:104A30006C490320087007E0644800686B4908600F
:104A4000FCF7AEFC00E0FFE775E06548006802286F
:104A500060D1FFE763480078C01E0490032857D850
:104A60000498810001A040588746C0467D4A000056
:104A7000AD4A0000CB4A0000F74A00005949042023
:104A8000087046E000005743E8062020AC002020D4
:104A9000E0062020E40620209704000000003443B4
:104AA000D4062020C6042020CA0620205048FFF744
:104AB000B1F9002808D0FFE74A49052008704348AB
:104AC00000684C490860FFE723E040480068474918
:104AD00003910860464800F06FFC03980068454960
:104AE0000968401A4449884204D3FFE73D4906203B
:104AF0000870FFE70DE03C48FFF78CF9002806D06E
:104B0000FFE74B2081000846FEF7E2FCFFE700E0EC
:104B1000FFE70FE03248006803280AD1FFE7314879
:104B20000078062803D1FFE7FCF7C2FB00E0FFE7AF
:104B3000FFE7FFE7FFE7FFE729480068042825DBD8
:104B4000FFE7284800780290062804D0FFE7029883
:104B500007280BD018E00020FFF75CF9002804D0EC
:104B6000FFE7204907200870FFE70EE01B4908789F
:104B7000401C08701B4900200870194908601B4937
:104B800008601C490860FFE7FFE7FFE7134800786B
:104B9000052809DBFFE7002101910846FEF798FC94
:104BA00001980C490870FFE7FFE7FFE7FFE7FFE721
:104BB000FFE7FFE7FFE724B080BDC046C006202026
:104BC00008002020B6030000E9062020AC002020C9
:104BD000CC062020CD042020C0062020C6042020A2
:104BE000D4062020E806202000003443E4062020DC
:104BF00000005743E0062020970400000080A243F5
:104C0000C4090000AC0D0000E90620200000374375
:104C100080B586B00020039004AA908004905020B4
:104C20003D21062300F012FB03900398002807D1D2
:104C3000FFE7114A012030210823FEF7F9FAFFE7C8
:104C400004A94879000209794018FBF7EAFF00221D
:104C500001920A4BFBF746FD019A094BFBF7ECFF6B
:104C6000FBF756FB02900298064988600298FCF711
:104C700031F906B080BDC046F66100000000E0409A
:104C8000008066409C00202080B582B0E048402132
:104C9000FCF7E9FE402804D1FFE70120002843D1BA
:104CA00003E0002000283FD1FFE7DA480821FCF7A5
:104CB000DAFE082804D1FFE70120002834D103E000
:104CC0000020002830D1FFE7012081040191D14864
:104CD000FCF7C9FE0199884204D1FFE701200028B2
:104CE00022D103E0002000281ED1FFE7C848082198
:104CF000FCF7B9FE082804D1FFE70120002813D1F2
:104D000003E0002000280FD1FFE7C2481021FCF784
:104D1000AAFE102804D1FFE70120002804D18AE070
:104D20000120002800D086E0BB480068002800D0A1
:104D300081E0BA48007800287DD1FFE7B8490868CB
:104D4000401C0860B7480078012813D1FFE7B44839
:104D5000006801280EDBFFE7B3490868401C0860C3
:104D6000AD4901200860B54914200880AC490020F5
:104D70000860FFE7AB480078022824D1FFE7A84885
:104D8000006802281FDBFFE7A8480068A8490968F7
:104D9000401AA949884216D3FFE7A34800680128B2
:104DA00011D1FFE7A0490868401C08609A4901201A
:104DB0000860A2491420088099490020086097499A
:104DC000322008701BE097480078022816D1FFE7D0
:104DD00095480068012811D0FFE793490868401CF6
:104DE00008608D49012008609449142008808C498E
:104DF00000200860894932200870FFE7FFE78948F2
:104E00000078032816DBFFE785480068052811DBDA
:104E1000FFE785490868401C08607F490120086059
:104E20008649142008807E49002008607B49322092
:104E30000870FFE7E7E0C0484021FCF714FE402877
:104E400004D1FFE70120002804D0D7E0002000288B
:104E500000D0D3E0B9480821FCF705FE082804D1AA
:104E6000FFE70120002804D0C8E00020002800D07F
:104E7000C4E0012081040091B048FCF7F4FD0099E2
:104E8000884204D1FFE70120002804D0B6E00020CA
:104E9000002800D0B2E0EB480821FCF7E4FD082828
:104EA00004D1FFE70120002804D0A7E0002000285B
:104EB00000D0A3E0A1481021FCF7D5FD102804D1B3
:104EC000FFE70120002804D098E00020002800D04F
:104ED00094E051480068012800D08FE04F480078E6
:104EE000002800D08AE04E490868401C08604D4800
:104EF000007803281ED1FFE74B480068012819D12C
:104F0000FFE74A4800684A490968401A4949884207
:104F100010D3FFE744490868401C08603E49002060
:104F20000860C94A142111803D4908603B4932207C
:104F3000087062E03B48007803281ED1FFE73A483A
:104F40000068032819D1FFE7384800683849096824
:104F5000401A3949884210D3FFE733490868401C9A
:104F600008602D4900200860B74A142111802C499F
:104F700008602A49322008703EE02A48007802285A
:104F80001ED1FFE72948006829490968401A2A49C3
:104F9000884215D3FFE724480068012810D1FFE7B5
:104FA00021490868401C08601B4900200860A64A87
:104FB000142111801A4908601849322008701AE03B
:104FC00018480078022815D1FFE717480068012823
:104FD00010D0FFE714490868401C08600E49002003
:104FE0000860994A142111800D4908600B4932204C
:104FF0000870FFE7FFE7FFE7FFE703E0084900204D
:105000000860FFE7FFE7FEF7B1FF02B080BDC046D2
:1050100000000A4000200A40C8042020C1062020C9
:10502000C4062020C0062020D4062020E40620202C
:10503000E00620207E0400007F040000C40420203D
:1050400010B58CB00BAA254C148050200290692119
:1050500000910223039300F063F9C8200490FEF747
:105060006DFF0298039B0AAA04211180012101917E
:1050700000F056F90498FEF761FF0298039B09AA15
:1050800000210591118000F04BF90498FEF756FFBE
:1050900000990298039B08AA148000F041F9049833
:1050A000FEF74CFF01990298039B07AA082414807D
:1050B00000F036F90498FEF741FF0298039B05992A
:1050C00006AA118000F02CF90498FEF737FF059826
:1050D00003498860486008600CB010BD88B50000C6
:1050E0009C00202080B584B003A900200870012016
:1050F000810402915348FCF78AFC0299884206D148
:10510000FFE703980121084303A90870FFE7012086
:10511000410501910948FCF77AFC0199884206D1C2
:10512000FFE703980221084303A90870FFE703A8DB
:10513000007804B080BDC04600000A4000200A404C
:1051400080B582B0FFF7CEFF01461A4801700078A3
:10515000C007002812D0FFE717480078C0070028D2
:105160000CD1FFE7354801900178491C01700078A7
:105170000721FBF713F801980170FFE70D4800784D
:10518000800700280FD5FFE70B480078800700282C
:1051900009D4FFE72948007829490870C148006808
:1051A000BD490860FFE7034800780349087002B072
:1051B00080BDC046C9062020C806202080B582B028
:1051C000002000900190FEF7E7FCFDF771FCFDF771
:1051D00095FCFDF791FD00990846FEF779F9FEF779
:1051E000E1FDFDF757F9FFF7ABFFFFF729FF009847
:1051F0001249087012490870012001031148FCF798
:1052000055FCFFE7FEF7A2F8FFF702FDFBF7B4FE3F
:10521000A4490860FFF738FD0B480088012806DB29
:10522000FFE7012001030748FCF7ECFA05E0012045
:1052300001030448FCF73AFCFFE7E3E7CC06202033
:10524000CD04202000000A40C404202010B586B000
:1052500004AC207003A8017002920193002000901A
:10526000FDF7D0FB04984006000EFEF72FFDFDF77A
:1052700033FB012804D1FFE705A9002008704BE0AB
:1052800003A80078FEF722FDFDF726FB012804D1D4
:10529000FFE705A9002008703EE00520FEF75BFE51
:1052A000FDF7B0FB04984000401CC0B2FEF70EFDB5
:1052B000FDF712FB012804D1FFE705A900200870C3
:1052C0002AE000200090FFE70098019988421DD253
:1052D000FFE700980199491E884209D0FFE7FEF7D1
:1052E00065F90299009A88540020FDF74DFB08E00B
:1052F000FEF75CF90299009A88540120FDF744FBFF
:10530000FFE7FFE70098401C0090DDE7FDF7A8FBF2
:1053100005A901200870FFE705A8007806B010BDB8
:1053200010B586B004AC207003A8017002920193FE
:1053300000200090FDF766FB04984006000EFEF783
:10534000C5FCFDF7C9FA012804D1FFE705A9002033
:1053500008702DE003A80078FEF7B8FCFDF7BCFA52
:10536000012804D1FFE705A90020087020E00020F3
:105370000090FFE700980199884213D2FFE7029856
:105380000099405CFEF7A2FCFDF7A6FA012804D1C3
:10539000FFE705A9002008700AE0FFE70098401C1D
:1053A0000090E7E7FDF75CFB05A901200870FFE727
:1053B00005A8007806B010BD80B58AB009903648BF
:1053C0000068364900F0ADF8002831D1FFE73548D4
:1053D00006903148059000683449049100F004FAC1
:1053E000099900F00FF9014606980068FBF7CEFE18
:1053F00001462D48079000F0F7F9FBF76BFD049983
:10540000024605980892006800F0EEF9099900F04C
:10541000F9F8014606980068FBF7B8FE079900F016
:10542000F1F8FBF757FD01460898FEF751F831E017
:10543000194800681A4900F069F8002829D1FFE7E7
:1054400018480190099814490091096800F0CCF9B6
:10545000014601980068FBF799FE01461248029048
:1054600000F0C2F9FBF736FD00990390099809682E
:1054700000F0BAF9014601980068FBF787FE02992F
:1054800000F0C0F8FBF726FD01460398FEF720F870
:10549000FFE7FFE70AB080BDA80020200000964388
:1054A0000000A041C00420200080BB440000B443A1
:1054B00010B500F043F8EFF30080800001D5012023
:1054C00010BD002010BD10B500F038F8EFF30080DB
:1054D0004000800F012800D0002010BD10B500F062
:1054E0005FF8EFF300804000800F012801D0012019
:1054F00010BD002010BD10B500F052F8EFF3008091
:10550000800001D4012010BD002010BD10B500F0B6
:10551000BFF8EFF30080800001D5012010BD00200E
:1055200010BD10B500F0DEF8EFF300804000800FF2
:10553000012801D0012010BD002010BD70B501254B
:105540002D050C001C4310D4EC4206D4AC420AD406
:10555000994200D070BD904270BDE94217D4EB4231
:1055600015D4994270BD894270BDEC4206D5AC425B
:10557000F9D58B4200D070BD824270BD6D004C00E9
:10558000EC4204D25C00EC4201D28B4270BD034C71
:1055900030B4FBF7F5FC30BC70BD00BF190013043C
:1055A00070B501252D050C001C4310D4EC4206D427
:1055B000AC420AD4994200D070BD904270BDE9421D
:1055C00017D4EB4215D4994270BD894270BDEC42AC
:1055D00006D5AC42F9D58B4200D070BD824270BD79
:1055E0006D004C00EC4204D25C00EC4201D28B42D4
:1055F00070BD034C30B4FBF7C3FC30BC70BD00BFC2
:105600001900160470B50125ED0704004C4020D4A4
:10561000441A01D2001B0919C60D4B00F2B2FF2A31
:1056200029D01B0E2CD000020C0228432C43D31A85
:10563000DC40051910D2280A02D3401C6D0611D097
:10564000761EF6058019FF2A00DA70BDC00DC00570
:1056500070BD694000F0CEF801200543C541521CE1
:10566000761CE8E764089C40C90161408900E7D1E5
:105670000124A043E4E71B0E440200D0034870BDA0
:10568000002AFCD1C00FC00770BD00BF0000C07F62
:105690000123DB0502000A430DD4DA4203D49A4207
:1056A00007D488427047D84214D4D94212D48842D1
:1056B000704780427047DA4203D59A42F9D5814259
:1056C00070475B004200DA4204D24A00DA4201D25B
:1056D0008142704710B5024AFBF7A2FC10BD00BF23
:1056E000090013040123DB0502000A430DD4DA424A
:1056F00003D49A4207D488427047D84214D4D9427E
:1057000012D48842704780427047DA4203D59A42E9
:10571000F9D5814270475B004200DA4204D24A0068
:10572000DA4201D28142704710B5024AFBF778FC99
:1057300010BD00BF0900160470B5420064414B0063
:105740005C41120E39D01B0E38D0FF2A3CD0FF2B03
:105750003AD0D2187F3A40024902400A490A451815
:10576000ED0106004E43000A090A48430104731A7A
:105770004019190C4318990F04D05B0801214907FF
:105780005B1A521CD80904D3401CF50301D19D06B5
:1057900007D0FF2A08D2D50506D0E40720434019D8
:1057A00070BD0125A843F4E7002A01DCE00770BDC5
:1057B0002402FF202043C00570BD1B0EFF2A03D02A
:1057C000FF2B01D0E00770BDFF2636064500B5422D
:1057D00006D84D00B54203D8D218FF2A00D0E7E71B
:1057E000004870BD0000C07F70B50125ED070400C2
:1057F0004C4022D4441A02D26C40001B0919C60D39
:105800004B00F2B2FF2A4BD01B0E50D000020C020C
:10581000A8432C43D31ADC40051B05D5AD0019D392
:105820006D08761E521E37D0F605280A01D280195F
:1058300070BD70416D0603D070BD6940FFF7E8FE92
:105840009C4009026140490001D0401E70BD012406
:10585000A04370BD6D081DD001202B0C01D12D047B
:1058600010302B0E01D12D0208302B0F01D12D014C
:10587000001DAB0F01D1AD00801CEB0F01D16D00FD
:10588000401C361A121A6D00680AF5054019012AE3
:1058900002DB70BD002070BDC036300AC00770BD8D
:1058A0001B0E440201D1FF2B00D1024870BD002A1B
:1058B000F0D070BD0000C07F80807F7E7D7C7B7AD1
:1058C0007978777676757473727171706F6E6E6DAC
:1058D0006C6C6B6A6A696868676666656464636352
:1058E00062616160605F5F5E5E5D5D5C5C5B5B5AD8
:1058F0005A59595858575756565555555454535345
:1059000052525251515050504F4F4F4E4E4D4D4D9F
:105910004C4C4C4B4B4B4A4A4A49494948484847EA
:105920004747474646464545454444444443434328
:105930004342424242414141000000000000000059
:10594000002F000000000700070000147F147F14E0
:1059500000242A7F2A120023130864620036495566
:10596000225000000007000000001C22410000003F
:1059700041221C000014083E08140008083E0808D4
:10598000000000A06000000808080808000060602F
:105990000000002010080402003E5149453E00006E
:1059A000427F4000004261514946002141454B3150
:1059B000001814127F10002745454539003C4A491C
:1059C000493000017109050300364949493600068E
:1059D0004949291E000036360000000056360000F6
:1059E0000008142241000014141414140000412271
:1059F0001408000201510906003E4955592E007C49
:105A00001211127C007F49494936003E4141412232
:105A1000007F4141221C007F49494941007F09091B
:105A20000901003E4149497A007F0808087F0000CB
:105A3000417F4100002040413F01007F0814224186
:105A4000007F40404040007F020C027F007F04083E
:105A5000107F003E4141413E007F09090906003E9A
:105A60004151215E007F09192946004649494931C3
:105A70000001017F0101003F4040403F001F2040E6
:105A8000201F003F4038403F0063140814630007A4
:105A90000870080700615149454300007F414100FB
:105AA000000204081020000041417F0000040201B0
:105AB0000204004040404040000001020400002079
:105AC00054545478007F48444438003844444420B7
:105AD00000384444487F00385454541800087E0964
